:020000040000fa
:080000000002040000000000f2
:020000040000fa
:04000800fa020000f8
:020000040000fa
:04000c003c030000b1
:020000040000fa
:040010007c0300006d
:020000040000fa
:040014001a030000cb
:020000040000fa
:040018005c03000085
:020000040000fa
:04001c00f6030000e7
:020000040000fa
:040020009c0300003d
:020000040000fa
:04002400f6030000df
:020000040000fa
:04002800f6030000db
:020000040000fa
:04002c00f6030000d7
:020000040000fa
:04003000f6030000d3
:020000040000fa
:04003400f6030000cf
:020000040000fa
:04003800f6030000cb
:020000040000fa
:04003c00f6030000c7
:020000040000fa
:04004000f6030000c3
:020000040000fa
:04004400f6030000bf
:020000040000fa
:04004800f6030000bb
:020000040000fa
:04004c00f6030000b7
:020000040000fa
:04005000f6030000b3
:020000040000fa
:04005400f6030000af
:020000040000fa
:04005800f6030000ab
:020000040000fa
:04005c00f6030000a7
:020000040000fa
:04006000f6030000a3
:020000040000fa
:04006400f60300009f
:020000040000fa
:04006800f60300009b
:020000040000fa
:04006c00f603000097
:020000040000fa
:04007000f603000093
:020000040000fa
:04007400f60300008f
:020000040000fa
:04007800f60300008b
:020000040000fa
:04007c00f603000087
:020000040000fa
:04008000f603000083
:020000040000fa
:04008400f60300007f
:020000040000fa
:04008800f60300007b
:020000040000fa
:04008c00f603000077
:020000040000fa
:04009000f603000073
:020000040000fa
:04009400f60300006f
:020000040000fa
:04009800f60300006b
:020000040000fa
:04009c00f603000067
:020000040000fa
:0400a000f603000063
:020000040000fa
:0400a400f60300005f
:020000040000fa
:0400a800f60300005b
:020000040000fa
:0400ac00f603000057
:020000040000fa
:0400b000f603000053
:020000040000fa
:0400b400f60300004f
:020000040000fa
:0400b800f60300004b
:020000040000fa
:0400bc00f603000047
:020000040000fa
:0400c000f603000043
:020000040000fa
:0400c400f60300003f
:020000040000fa
:0400c800f60300003b
:020000040000fa
:0400cc00f603000037
:020000040000fa
:0400d000f603000033
:020000040000fa
:0400d400f60300002f
:020000040000fa
:0400d800f60300002b
:020000040000fa
:0400dc00f603000027
:020000040000fa
:0400e000f603000023
:020000040000fa
:0400e400f60300001f
:020000040000fa
:0400e800f60300001b
:020000040000fa
:0400ec00f603000017
:020000040000fa
:0400f000f603000013
:020000040000fa
:0400f400f60300000f
:020000040000fa
:0400f800f60300000b
:020000040000fa
:0400fc00f603000007
:020000040000fa
:04010000f603000002
:020000040000fa
:04010400f6030000fe
:020000040000fa
:04010800f6030000fa
:020000040000fa
:04010c00f6030000f6
:020000040000fa
:04011000f6030000f2
:020000040000fa
:04011400f6030000ee
:020000040000fa
:04011800f6030000ea
:020000040000fa
:04011c00f6030000e6
:020000040000fa
:04012000f6030000e2
:020000040000fa
:04012400f6030000de
:020000040000fa
:04012800f6030000da
:020000040000fa
:04012c00f6030000d6
:020000040000fa
:04013000f6030000d2
:020000040000fa
:04013400f6030000ce
:020000040000fa
:04013800f6030000ca
:020000040000fa
:04013c00f6030000c6
:020000040000fa
:04014000f6030000c2
:020000040000fa
:04014400f6030000be
:020000040000fa
:04014800f6030000ba
:020000040000fa
:04014c00f6030000b6
:020000040000fa
:04015000f6030000b2
:020000040000fa
:04015400f6030000ae
:020000040000fa
:04015800f6030000aa
:020000040000fa
:04015c00f6030000a6
:020000040000fa
:04016000f6030000a2
:020000040000fa
:04016400f60300009e
:020000040000fa
:04016800f60300009a
:020000040000fa
:04016c00f603000096
:020000040000fa
:04017000f603000092
:020000040000fa
:04017400f60300008e
:020000040000fa
:04017800f60300008a
:020000040000fa
:04017c00f603000086
:020000040000fa
:04018000f603000082
:020000040000fa
:04018400f60300007e
:020000040000fa
:04018800f60300007a
:020000040000fa
:04018c00f603000076
:020000040000fa
:04019000f603000072
:020000040000fa
:04019400f60300006e
:020000040000fa
:04019800f60300006a
:020000040000fa
:04019c00f603000066
:020000040000fa
:0401a000f603000062
:020000040000fa
:0401a400f60300005e
:020000040000fa
:0401a800f60300005a
:020000040000fa
:0401ac00f603000056
:020000040000fa
:0401b000f603000052
:020000040000fa
:0401b400f60300004e
:020000040000fa
:0401b800f60300004a
:020000040000fa
:0401bc00f603000046
:020000040000fa
:0401c000f603000042
:020000040000fa
:0401c400f60300003e
:020000040000fa
:0401c800f60300003a
:020000040000fa
:0401cc00f603000036
:020000040000fa
:0401d000f603000032
:020000040000fa
:0401d400f60300002e
:020000040000fa
:0401d800f60300002a
:020000040000fa
:0401dc00f603000026
:020000040000fa
:0401e000f603000022
:020000040000fa
:0401e400f60300001e
:020000040000fa
:0401e800f60300001a
:020000040000fa
:0401ec00f603000016
:020000040000fa
:0401f000f603000012
:020000040000fa
:0401f400f60300000e
:020000040000fa
:0401f800f60300000a
:020000040000fa
:0401fc00f603000006
:020000040000fa
:04020000f603000001
:020000040000fa
:04020400f6030000fd
:020000040000fa
:04020800f6030000f9
:020000040000fa
:04020c00f6030000f5
:020000040000fa
:04021000f6030000f1
:020000040000fa
:04021400f6030000ed
:020000040000fa
:04021800f6030000e9
:020000040000fa
:04021c00f6030000e5
:020000040000fa
:04022000f6030000e1
:020000040000fa
:04022400f6030000dd
:020000040000fa
:04022800f6030000d9
:020000040000fa
:04022c00f6030000d5
:020000040000fa
:04023000f6030000d1
:020000040000fa
:04023400f6030000cd
:020000040000fa
:04023800f6030000c9
:020000040000fa
:04023c00f6030000c5
:020000040000fa
:04024000f6030000c1
:020000040000fa
:04024400f6030000bd
:020000040000fa
:04024800f6030000b9
:020000040000fa
:04024c00f6030000b5
:020000040000fa
:04025000f6030000b1
:020000040000fa
:04025400f6030000ad
:020000040000fa
:04025800f6030000a9
:020000040000fa
:04025c00f6030000a5
:020000040000fa
:04026000f6030000a1
:020000040000fa
:04026400f60300009d
:020000040000fa
:04026800f603000099
:020000040000fa
:04026c00f603000095
:020000040000fa
:04027000f603000091
:020000040000fa
:04027400f60300008d
:020000040000fa
:04027800f603000089
:020000040000fa
:04027c00f603000085
:020000040000fa
:04028000f603000081
:020000040000fa
:04028400f60300007d
:020000040000fa
:04028800f603000079
:020000040000fa
:04028c00f603000075
:020000040000fa
:04029000f603000071
:020000040000fa
:04029400f60300006d
:020000040000fa
:04029800f603000069
:020000040000fa
:04029c00f603000065
:020000040000fa
:0402a000f603000061
:020000040000fa
:0402a400f60300005d
:020000040000fa
:0402a800f603000059
:020000040000fa
:0402ac00f603000055
:020000040000fa
:0402b000f603000051
:020000040000fa
:0402b400f60300004d
:020000040000fa
:0402b800f603000049
:020000040000fa
:0402bc00f603000045
:020000040000fa
:0402c000f603000041
:020000040000fa
:0402c400f60300003d
:020000040000fa
:0402c800f603000039
:020000040000fa
:0402cc00f603000035
:020000040000fa
:0402d000f603000031
:020000040000fa
:0402d400f60300002d
:020000040000fa
:0402d800f603000029
:020000040000fa
:0402dc00f603000025
:020000040000fa
:0402e000f603000021
:020000040000fa
:0402e400f60300001d
:020000040000fa
:0402e800f603000019
:020000040000fa
:0402ec00f603000015
:020000040000fa
:0402f000f603000011
:020000040000fa
:0402f400f60300000d
:020000040000fa
:0402f800f603000009
:020000040000fa
:0402fc00f603000005
:020000040000fa
:04030000f603000000
:020000040000fa
:04030400f6030000fc
:020000040000fa
:04030800f6030000f8
:020000040000fa
:04030c00f6030000f4
:020000040000fa
:04031000f6030000f0
:020000040000fa
:04031400f6030000ec
:020000040000fa
:04031800f6030000e8
:020000040000fa
:04031c00f6030000e4
:020000040000fa
:04032000f6030000e0
:020000040000fa
:04032400f6030000dc
:020000040000fa
:04032800f6030000d8
:020000040000fa
:04032c00f6030000d4
:020000040000fa
:04033000f6030000d0
:020000040000fa
:04033400f6030000cc
:020000040000fa
:10040000cf0c21000eff26000e0188000000000026
:10041000000020000000e000020032000001200087
:100420002002880014000700f20007000000e0002e
:1004300003003a0040ed20000100200002003700d8
:100440000000200001002000810f70000100320038
:100450000f000700000020000000e0000200320052
:1004600000000200000000002a0f0200000000004f
:100470000040da000000fe00200020000000e00044
:1004800002003200100020009001880000000600e9
:10049000a1028800800478000000eb001f003700f4
:1004a000e284440054a0b4009905ba00e2844400f8
:1004b00054a0b4009906ba00e284440054a0b400e9
:1004c0000006eb00476fde00fd07b200ae018800ba
:1004d000636ce10003003a000ad801000000eb0061
:1004e0000e003700606ce10008003a00004deb00a0
:1004f0000a05e800020039003420ec000af0a000f0
:100500008b05e900f9ff3e00040037006168e10057
:10051000010032000086eb000b00070019c7ba008b
:100520001905ba000e04e00003003a000a00e000da
:10053000dbff3a0000000600fe07b200ae028800b2
:100540008a047800f5ff37000cd0a300e20f4d00bd
:100550001c00390089027800354dba000a05e80010
:10056000020039003420ec000af0a0008b05e900fd
:100570000f003200254dba000a05e80002003900dc
:100580003420ec000af0a0008b05e90008003200de
:100590000c00e0000600320015cdba000a05e800a4
:1005a000020039003420ec000af0a0008b05e900bd
:1005b0008984e80054a0b4000b00e000e2ff3a0098
:1005c000000006009902ba00055d78008b05e9007d
:1005d000f7ff3200c82ade00055d78008b05e900d0
:1005e000f3ff32000c00e000f1ff320019ddba0029
:1005f000eeff37003600f800809fbe00829fbe00ed
:10060000849fbe00869fbe000000fa00c028a9009b
:100610000000eb00480607000080fa004f03be0010
:100620004f02be004f01be004f00be003600f90071
:10063000004006003600f800809fbe00829fbe008a
:10064000849fbe00869fbe000000fa003f060700a0
:10065000c048a90010002000370607000080fa00fb
:100660004f03be004f02be004f01be004f00be0050
:100670003600f900004006003600f800809fbe00fa
:10068000829fbe00849fbe00869fbe000000fa00cd
:10069000c068a90020002000270607000080fa009b
:1006a0004f03be004f02be004f01be004f00be0010
:1006b0003600f900004006003600f800809fbe00ba
:1006c000829fbe00849fbe00869fbe000000fa008d
:1006d000c088a90030002000170607000080fa003b
:1006e0004f03be004f02be004f01be004f00be00d0
:1006f0003600f900004006003600f800809fbe007a
:10070000829fbe00849fbe00869fbe000000fa004c
:10071000c608a90070002000070607000080fa0044
:100720004f03be004f02be004f01be004f00be008f
:100730003600f900004006003600f800809fbe0039
:10074000829fbe00849fbe00869fbe000000fa000c
:100750002146800000102000008060000000e000c2
:1007600003003200c508a900c0002000f205070000
:100770002146800000002800008060000000e000aa
:1007800003003200c5e8a90080002000ea05070048
:100790002146800000022000008060000000e00090
:1007a00003003200c4a8a90090002000e205070061
:1007b00020468000700060000000e000030032006e
:1007c000c488a900a0002000db05070020468000a7
:1007d000610060000000e00003003200c408a900ce
:1007e000b0002000d4050700ffff37000040da000a
:0807f0000000fe0000000500fe
:020000040000fa
:1007f8000200fa0010002000000f7800af02b000dd
:1008080060fd2f000f004000a10621001400090020
:1008180031187800a002b10025000700af02b1002e
:10082800000f78001e0078000080fa000000060023
:100838000200fa0000302000000f78001e00780047
:100848000080fa00000006000200fa0010002000f4
:10085800000f7800af02b00060fd2f000f004000cd
:10086800a10021001400090031187800a002b1008d
:100878000f000700af02b100000f78001e007800db
:100888000080fa00000006000200fa000130200093
:10089800010f78009e00780029000900315878007f
:1008a800a002b100a102b1000080fa000000060019
:1008b8000400fa0010002000100798000030200003
:1008c800000f78001e00780001fd2f00810047000e
:1008d8002900090031587800a002b1001e009000dc
:1008e8000080fa00000006000400fa0011079800d2
:1008f800a23220009e0090008101e9000436200009
:10090800a132200081005200819ab9008400780049
:10091800010f41009e007800350009003158780029
:100928006003b1006103b1000080fa000000060016
:100938000600fa0020079800100020001007980011
:10094800a13220002e0090000001e90003362000ab
:10095800a0322000008051008090b900008f400034
:100968001e00780041fc2f00810047003500090077
:10097800315878006003b1001e0090000080fa0032
:10098800000006000600fa0020079800100020006a
:10099800100798002e0090000c010700000f780047
:1009a8001e007800830007009e0090000100600090
:1009b800100798002e0090006f03b000a1fc2f00d4
:1009c8008f804000420321001a000900b218780005
:1009d8006103b100d6ff07006f03b1001e00780065
:1009e800904090000174a100114098001e0078000a
:1009f8001041780071ceb300814061000134a0003d
:100a0800014878001e0078001041780081cfb300bb
:100a180081406100014878001e0078001041900074
:100a280081cfb30081406100114098001e0078001a
:100a3800904078000174a000014878001e009000e2
:100a48000080fa00000006000400fa001007980071
:100a580010002000000f78001e0090006f03b00007
:100a6800a1fc2f008f804000420321001a000900da
:100a7800b21878006103b100adff07006f03b10041
:100a88001e0078000080fa00000006000600fa0048
:100a98002007980010002000000f78000000eb00ed
:100aa800100798002e009000f04090000154a0001c
:100ab800714098002e009000f04090000144a00082
:100ac800714098002e009000804890000134a100e9
:100ad800014898002e009000804890000124a10051
:100ae800014898002e009000904090000174a000ea
:100af800114098002e009000c04090000134a000e2
:100b0800414098002e0090009040780000c8b30043
:100b180000c060000004e0001b003200000000007c
:100b28000118800000002800008060000000e0003c
:100b38000a003a009e00900010c0b30072382100ed
:100b4800828f5000010036000040eb008100e80071
:100b5800110798000004e000f1ff3a009e009000a1
:100b680070382100808f500005003e000118800079
:100b780000002400008060000000e0000200320055
:100b88000000eb00090037002e009000804890001c
:100b98000134a000014898002e0090008048900081
:100ba8000124a000014898001e0078000080fa0087
:100bb800000006000400fa0010079800100020004a
:100bc800000f78001e009000f04090000154a00033
:100bd800714098001e009000f04090000144a00071
:100be800714098001e009000804890000134a100d8
:100bf800014898001e009000804890000124a10040
:100c0800014898001e009000904090000174a100d7
:100c1800114098001e0078000080fa0000000600cd
:100c28000400fa001007980010002000000f780058
:100c38001e009000f04090000154a10071409800ff
:100c48001e009000f04090000144a10071409800ff
:100c58001e0078000080fa00000006000400fa0078
:100c68001007980010002000000f78001e00900068
:100c7800f04090000154a000714098001e009000c0
:100c8800f04090000144a000714098001e007800d8
:100c98000080fa00000006000600fa00100798001d
:100ca8002107980010002000000f7800ae00900087
:100cb8001e009000f20f2000028160008069900001
:100cc800e0c1610002c1710002689800c808de0036
:100cd80010699000604161008140710011689800be
:100ce8001e0078000080fa00000006000600fa00e6
:100cf800100798002107980010002000000f7800c6
:100d0800ae0090001e009000f20f200002816000eb
:100d1800c0619000e0c1610002c1710042609800aa
:100d2800c808de0050619000604161008140710098
:100d3800516098001e0078000080fa00000006004c
:100d48000800fa0010079800210798003207980059
:100d580010002000000f7800ae0090001e009000e8
:100d6800f20f200002816000a0719000e0c16100d4
:100d780002c1710022709800c808de00307190002e
:100d8800604161008140710031709800be009000a0
:100d98001e009000f20f2000028160008071900018
:100da800e0c1610002c1710002709800c808de004d
:100db80010719000604161008140710011709800cd
:100dc8001e0078000080fa00000006000400fa0007
:100dd80010079800a13220001e0090000001e900d1
:100de80003362000a0322000008051008090b90016
:100df800008f40001e0078000080fa000000060006
:100e08000400fa001007980010002000000f780076
:100e18001e0090000000e00002003a000000eb0015
:100e2800120037001e00900080007800a0322000d9
:100e38008080500002362000a032200000005100bf
:100e480000017800050009008280d8000000e80051
:100e5800000f78001e007800e80f500002003600ee
:100e68000000eb00010037001e0078000080fa0047
:100e7800000006000600fa00200798001000200075
:100e8800000f78002e0090000000e00002003a00f9
:100e98000000eb001a0037002e0090008000780058
:100ea800a03220008080500002362000a0322000ae
:100eb8000000510000017800050009008280d80078
:100ec8000000e800100798001e009000e80f50008e
:100ed800020036000000eb00090037001e009000f9
:100ee800e40f50000300360020002000000f7800b7
:100ef8000200370010002000000f78001e00780064
:100f08000080fa00000006001400fa00600798004c
:100f180071079800020f98002357980010002000ce
:100f2800000f78000000eb00100798000000eb00ad
:100f3800200798000000eb00300798000000eb0045
:100f4800400798006e0090000000e00003003200a7
:100f58000e0890000000e00002003a000000eb00dc
:100f68006f0037006e009000a5ff0700100798007b
:100f78006e009000bfff0700300798000e08900031
:100f88009fff0700200798000e089000b9ff070090
:100f9800400798006e009000b04090000134a00017
:100fa800314098007e009000004078006740600063
:100fb8006340600067406000ee009000674060009a
:100fc800a149900082cfb30002c1610000407100c6
:100fd800a04898002e5090000014a000e740600040
:100fe8000e089000e7c06000b041900082cfb300c7
:100ff80002c1610081407100314098000e089000e4
:10100800a04090000164a000214098000e089000c4
:101018002049900071ceb3008140610021489800ba
:101028000e0890001041780081cfb3008140610024
:1010380001487800be0090004e009000808f50005c
:101048001f003a003e009000e10f50000b003a00ec
:101058001e00900000407800ef4060000e089000ed
:10106800efc06000a041900002cfb30002c1610050
:101078008140710021409800280037003e00900010
:10108800e20f50000c003a001e009000004078006b
:1010980064405000ef4060000e089000efc0600010
:1010a800a041900002cfb30002c1610081407100ed
:1010b80021409800190037000000eb0018003700a5
:1010c8000e0890004eff0700500798000e08900089
:1010d800a0409000f140b300214098000e08900015
:1010e8002059900001ceb300814061000104a000a6
:1010f800215898005e00900000407800e7406000aa
:101108000e089000e7c060009061900082cfb300a5
:1011180002c1610081407100116098001e007800d2
:101128000080fa00000006000200fa00100020000b
:10113800000f7800aefd07001000200023ff070015
:10114800408088006f03b000a0fc2f000f00400013
:101158004103210035000900315878006003b100cf
:1011680010002000f2fd07006f03b10040808000ee
:101178001041780071ceb300814061000134a000b5
:1011880001487800408080001041780081cfb3008a
:1011980081406100014878004080800090407800dc
:1011a8000174a00001487800408080003041900020
:1011b80081cfb300814061003140980040808000b9
:1011c800a04090000164a100214098004080800068
:1011d8002041900001cfb300814061002140980078
:1011e8004080800070419000c1cfb3008140610011
:1011f80071409800408080007041900031cfb3006a
:10120800814061007140980040808000f04090006b
:101218000144a0007140980040808000f040900098
:101228000154a0007140980040808000004990005f
:10123800f1ccb300814061000148980040808000f3
:1012480080689000e0c060000154a0000168980028
:101258009068900060c16000e1c4b30081407100f3
:101268001168980040808000c060900060c16000f4
:1012780001cab3008140710041609800d0609000bd
:10128800e0c06000f140b3005160980040808000e9
:10129800a0709000e0c0600021709800b0709000cd
:1012a800e0c060003170980040808000807090003d
:1012b800e0c060000170980090709000e0c060008d
:1012c8001170980040808000e0409000f143b20027
:1012d80061409800408080001051900081cfb30099
:1012e800814061003140b300115098004080800077
:1012f800805090000144a100015098004080800077
:101308006049900001ceb30081406100b141b30053
:101318006148980040808000e04890000154a10096
:1013280061489800408080007049900081cfb300e8
:10133800814061007148980040808000f04890002a
:101348000134a100714898004080800070499000e5
:1013580001c7b30081407100714898004080800047
:10136800e04890000174a000614898004080800027
:10137800f04890000174a1007148980040808000f6
:101388000051900081cfb300814061006140b300fb
:101398000150980040808000805090000134a000e7
:1013a8000150980040808000b8fd07000000000050
:1013b80000000000000000004080800018fe0700c8
:1013c800408080009040900000c8b30000c06000da
:1013d8000004e00007003200408080007040900068
:1013e8000042b2000004e00002003a0010002000b1
:1013f800010037000000eb00000f78001e007800a5
:101408000080fa00000006000200fa001000200028
:10141800000f78001c01070000808800400b2100a5
:101428001080fb00510b21009180fb00c808dd00f3
:10143800810070000000eb0001007800610b2100c2
:101448009180fb00720b21001281fb004811dd0026
:10145800028170008000eb0082007800820b21007e
:101468001281fb00930b21009381fb00c819dd005a
:10147800830171000001eb0003017800a30b210038
:101488009381fb00b40b21001482fb004822dd008d
:10149800048271008001eb008401780016010700c6
:1014a8000080800090407800f143b2000174a000f1
:1014b8000148780000808000e040900060c1600032
:1014c80071c5b3008140710061409800704190007f
:1014d800c1cfb30081406100714098000080800056
:1014e800c040900060c16000b1c4b3008140710089
:1014f8004140980050419000c1cfb3008140610045
:1015080051409800100020000c010700108088004e
:10151800c00b21001080fb00d10b21009180fb0043
:10152800c808dd00010070008000eb008000780032
:10153800e00b21001080fb00f20b21001281fb0060
:101548004811dd00020070000001eb000001780086
:10155800000c21001080fb00130c21009381fb007c
:10156800c819dd00030070008001eb0080017800dd
:10157800200c21001080fb00340c21001482fb0099
:101588004822dd00040070000002eb000002780031
:10159800400c21001080fb00550c21009582fb00b7
:1015a800c82add00050070008002eb008002780088
:1015b800600c21001080fb00760c21001683fb00d4
:1015c8004833dd00060070000003eb0000037800dc
:1015d800800c21001080fb00970c21009783fb00f2
:1015e800c83bdd00870370000000eb0007007800af
:1015f80080037800100020000001070010808000a0
:10160800e040900060c16000e1c4b3008140710017
:1016180061409800f0409000e0c06000c140b30015
:101628007140980010808000904090000114a00044
:101638001140980010808000904090000174a00034
:101648001140980000808000904090000174a00034
:10165800114098001e0078000080fa000000060083
:101668000000fa00007c80000080fa0000000600fc
:101678000200fa00faff0700000f78001e00780049
:10168800240007000004e0000200320000002800e7
:10169800710007001e0078002a0007000004e0001f
:1016a80002003200000024006b0007001e007800d2
:1016b800320007000004e000020032000020200091
:1016c800650007001e0078003a0007000004e000eb
:1016d80002003200000820005f0007001e007800aa
:1016e800420007000004e00002003200000420006d
:1016f800590007001e0078004a0007000004e000b7
:101708000200320000012000530007000080fa00a8
:10171800000006000400fa00100798000040eb00e3
:10172800004f78001e0090000000e00002003d001d
:1017380010c0b300004f78001e4078000080fa0007
:10174800000006000400fa00100798000040eb00b3
:10175800004f78009e009000000024000080600088
:101768000000e0000200320010c0b300004f780013
:101778001e4078000080fa00000006000400fa000d
:10178800100798000040eb00004f78009e00900082
:1017980000202000008060000000e000020032000d
:1017a80010c0b300004f78001e4078000080fa0097
:1017b800000006000400fa00100798000040eb0043
:1017c800004f78009e009000000820000080600014
:1017d8000000e0000200320010c0b300004f7800a3
:1017e8001e4078000080fa00000006000400fa009d
:1017f800100798000040eb00004f78009e00900012
:1018080000042000008060000000e00002003200b8
:1018180010c0b300004f78001e4078000080fa0026
:10182800000006000400fa00100798000040eb00d2
:10183800004f78001e009000700060000000e0007b
:101848000200320010c0b300004f78001e4078003c
:101858000080fa00000006000200fa00000f78007d
:101868009e80ea00007c800000806000007c880088
:101878000080fa00000006000000fa00802fef0048
:101888000080fa00000006000200fa0000c82000ec
:10189800000f78001e0078000080fa0000000600a3
:1018a8000200fa0010002000000f7800a0858000d8
:1018b800b1858000c2858000d38580000e000700b6
:1018c800000f78001e0078000080fa000000060073
:1018d8000200fa0001c82000010f78009e0078007d
:1018e80007000900315878008000b1008100b1007c
:1018f8000080fa00000006000c00fa00200798009b
:1019080031079800420798005307980010002000fc
:101918001007980000c82000000f78001e0078000b
:10192800e400470007000900315878008000b10042
:101938001e0090000080fa00000006000400fa0073
:101948001007980081c820001e0090000001e900df
:1019580083c9200080c82000008051008090b90011
:10196800008f40001e0078000080fa00000006008a
:101978000400fa001007980010002000000f7800fb
:101988001e009000e1858000f285800003868000bb
:101998001486800025868000368680004786800071
:1019a80016000700000f78001e0078000080fa007b
:1019b800000006000400fa001107980082c8200001
:1019c8009e0090008101e90084c9200081c82000a0
:1019d80081005200819ab90084007800010f41000b
:1019e8009e0078000d00090031587800e000b10031
:1019f800e100b1000080fa00000006001400fa00bf
:101a0800200798003107980042079800530798006c
:101a18006407980075079800060f9800170f98003c
:101a2800100020001007980081c820002e009000a8
:101a38000001e90083c9200080c82000008051000f
:101a48008090b900008f40001e007800e600470033
:101a58000d00090031587800e000b1001e00900028
:101a68000080fa00000006000000fa000421ef00e0
:101a7800f070220040088800201028000008880024
:101a8800a00c21008040eb00014878000080fa009b
:101a9800000006000000fa000040800062006000bc
:101aa8000000e00009003200b00c2100104078006e
:101ab8008040e800b00c210001487800a00c21000b
:101ac80011c0b300014878000028a9000080fa007e
:101ad800000006000200fa00000f78009e0078005f
:101ae80041088800a00c21008040eb0001487800e4
:101af8000080fa00000006000000fa00400880009c
:101b08000080fa00000006000200fa00000f7800ca
:101b18009e00780021088800a00c21008040eb007e
:101b2800014878000080fa00000006000000fa0072
:101b3800200880000080fa00000006000000fa007b
:101b4800a00c21008040eb000148780001e1a800ca
:101b58000080fa00000006000000fa0001e1a90078
:101b68000080fa00000006000200fa00a00c210024
:101b7800104f78001e4078000004e0000300320097
:101b8800a00c21008040eb00014878001e4078003e
:101b98000080fa00000006000000fa00b00c2100e6
:101ba800104078000080fb000080fa00000006006a
:101bb8000000fa00b00c21008040eb0001487800da
:101bc8000080fa00000006000000fa001000230060
:101bd800307c8800800c2000407c88008c2fef002f
:101be80010042000507c880010102800707c8800a9
:101bf800d0072000807c880010022000907c88009c
:101c08009a2fef00b82fef00ba2fef00be2fef008a
:101c1800002def00a02fef00a42fef00a62fef005c
:101c2800a82fef00aa2fef00ae2fef00b02fef0084
:101c3800b22fef001200200080072000a109200029
:101c480053f820008049780081497800824978005b
:101c580012002000600420007105200043f82000d5
:101c680080497800814978008249780000000000a6
:101c7800207c8000610060000000e000fcff3a006a
:101c880000000000217c800000022000008060002d
:101c98000000e000fbff32000080fa0000000600b0
:101ca8000000fa00707c8000ee800a00000000004e
:101cb8000080fb0000f0a7000000ea000000ea0036
:101cc8004f00de00004078000080fa0000000600a7
:101cd8000000fa00062eef00222eef003e2eef0045
:101ce8005a2eef00f001200010708800d0ff2f005e
:101cf800f07088000080eb00d07188000080eb0055
:101d0800b07288000c2eef00282eef00442eef0052
:101d1800602eef000a2eef00262eef00422eef0075
:101d28005e2eef00082eef00242eef00402eef006d
:101d38005c2eef00f0012000007088005038200071
:101d4800e0708800f00c2000c071880000c02200fc
:101d5800a07288000080fa00000006000000fa0067
:101d68000000eb0051052000b1468800a10a2000c0
:101d7800b146880000688800b0c3b3001dedb70005
:101d88000080200051052000b1468800a10a2000eb
:101d9800b1468800006888000080fa00000006004c
:020000040000fa
:101da800b410000016000000800000006a10000057
:101db8002a0000008200000003000000000000006c
:101dc800000000000000000000000000000000000b
:101dd80000000000000000000000000000000000fb
:101de80000000000000000000000000000000000eb
:101df8000a1000006000000080000000ca10000007
:101e08000200000080000000941000002000000084
:101e180080000000041000000200000082000000a2
:101e2800ffff000006100000020000008000000014
:101e380008100000020000008000000000100000f0
:0c1e48000400000080000000000000000a
:020000040000fa
:101e54000000fa002d000700b4fc07006bfd07002a
:101e64000028a9005b8ea900578ea9005beea9008b
:101e740057eea9003f6ea8003b6ea800b8ff07000c
:101e8400066ea900026ea900000000000040800058
:101e9400620060000000e000fcff32000028a9009e
:101ea4005b8ea900308080000000e800308088004c
:101eb4003180800080bb2000808f500002003600fb
:101ec4000630ef005beeaa0000000000efff3700d1
:101ed4000200fa00000f780021028000200f200089
:101ee400008060001e007000200288000080fa005c
:101ef400000006000000fa00c3e8a800000000008b
:101f0400000000000080fa00000006000000fa0053
:101f140070ff0700130007002cff0700d3fe070023
:101f2400f4ff070000022000e9ff07000080fa0028
:101f3400000006000200fa00000f78009e007800fe
:101f440021808800ffff37000000fa0040092100cb
:101f540080077800c00a2100000188000080fa0090
:101f6400000006000000fa000080fa0000000600ed
:020000040000fa
:020000040005f5
:047e0000ffff000080
:020000040000fa
:020000040005f5
:047e2000ffffff0061
:020000040000fa
:020000040005f5
:047e300078ffff00d8
:020000040000fa
:020000040005f5
:047e38007bffff00cd
:020000040000fa
:020000040005f5
:047e40006003ff00dc
:020000040000fa
:020000040005f5
:047e4800ffffff0039
:020000040000fa
:020000040005f5
:047e5000deffff0052
:020000040000fa
:020000040005f5
:047e58000000ff0027
:020000040000fa
:020000040005f5
:047e60000000ff001f
:020000040000fa
:020000040005f5
:047e68000000ff0017
:020000040000fa
:020000040005f5
:047e70000000ff000f
:020000040000fa
:020000040005f5
:047e7800ffffff0009
:020000040000fa
:020000040005f5
:047e8000fffcff0004
:020000040000fa
:020000040005f5
:047e8800ffffff00f9
:020000040000fa
:020000040005f5
:047ff800ffffff0088
:020000040000fa
:020000040100f9
:04300000ffffff00cf
:00000001FF
